:101A000024C033C032C031C030C02FC02EC02DC062
:101A10002CC02BC02AC029C028C027C026C025C082
:101A200024C023C022C021C020C01FC01EC01DC0B2
:101A30001CC01BC01AC019C018C017C04CC159C166
:101A40006CC180C19EC1AAC1B8C111241FBECFEF15
:101A5000D2E0DEBFCDBF21E0A0E0B1E001C01D9229
:101A6000A732B207E1F7C5D11FC2CACF882321F040
:101A70008091A4008B7F03C08091A4008460809338
:101A8000A4009091A400662311F082E001C083E0DD
:101A9000892B8093A400089598E09093A5009093DB
:101AA000A400880F81608093A10008958093240191
:101AB000880F8093A2000895809124010895FF92D9
:101AC0000F931F93CF93DF931F92CDB7DEB7009193
:101AD000A30001FBFF24F0F806FF35C0102F1170A2
:101AE0004091030181E0411102C0F110812761E0C2
:101AF00061274983BBDF809100014981823061F415
:101B0000442351F020E264E071E080910101D1D0E2
:101B10008093030110920201111103C01092000181
:101B20000BC0FF2021F081E08093000105C082E01E
:101B300080930001109203018091A00090E09595A0
:101B400087958093010107FF31C0FF20F1F0E091FC
:101B5000020180910301E81768F481E08E0F809301
:101B60000201F0E0EC5FFE4F80818093A00060E016
:101B700081E004C01092A00061E080E00F90DF914E
:101B8000CF911F910F91FF9071CF1091A00060E055
:101B900081E06CDFE0910301E03240F481E08E0FE0
:101BA00080930301F0E0EC5FFE4F10830F90DF9114
:101BB000CF911F910F91FF9008952FB7F894E1995D
:101BC000FECF33E0FC0130935700E89507B600FCE8
:101BD000FDCF78942FBF089520E030E090E0F90128
:101BE000E80FF91FE491DB01ED93BD012F5F3F4F3B
:101BF00020313105A1F70895CF93DF93CFB7F89443
:101C0000E199FECF20E030E0D1E0DB01A20FB31F6D
:101C1000F901E80FF91F11964C91119750E0542FDC
:101C20004427AC914A2B0A01D0935700E895112420
:101C30002E5F3F4F2031310541F725E0FC01209315
:101C40005700E89507B600FCFDCF7894CFBFDF9131
:101C5000CF91089508958EEF91E000D18F3F2FEF3F
:101C6000920711F481E090E0909326018093250182
:101C7000089560912501709126018EEF91E0F3C0E7
:101C8000FC01818190E0982F88272081822B089584
:101C9000FC01218130E0322F22278081282B81E036
:101CA00040912501509126012417350709F080E065
:101CB0000895CF93DF93EB01442309F493C0888107
:101CC00090E0FC01E556F109E730F10508F08AC023
:101CD000E25EF24F0994433009F084C0CB010196D3
:101CE000D7DF882309F47EC082ED888384E089836E
:101CF00076C0433008F476C080912501909126018A
:101D00002A8130E0322F22274981242B28173907D6
:101D100008F068C08883998362C0453009F062C0CA
:101D2000CB010196B5DF882309F45CC08C8190E07B
:101D3000982F88272B81822B909326018093250151
:101D400098DF50C0433009F04DC0CB010196A0DFB1
:101D5000882309F447C0E0E0F0E081E28093570077
:101D6000E491E883E2E0F0E080935700E491E983B6
:101D7000E4E0F0E080935700E491EA8383E090E0B0
:101D800033C0453079F5CB01019682DF882351F1CC
:101D9000BE018B8121DF80E190E026C0453011F546
:101DA000CB01019675DF8823E9F08C8190E0982FB4
:101DB00088272B81822B01DF15C0453199F4CB0197
:101DC000019666DF882371F0BE016B5F7F4F8C81C7
:101DD00090E0982F88272B81822B0EDF03C082E0B2
:101DE00090E002C080E090E0DF91CF91089580E024
:101DF0000895CF93DF931F92CDB7DEB78FEF92E0B8
:101E00009EBF8DBF11241124E4E0F0E081E28093B5
:101E10005700E491E9831FDF89E03EDED59AC12CAB
:101E2000D12C76018FEFC81AD80AE80AF80A89E19E
:101E3000C81683E7D80681E0E806F10468F0DD9A69
:101E400081EAC81686E8D80681E0E806F10420F0A9
:101E5000DD98C12CD12C760132DEE4CFA8E1B0E0D0
:101E600042E050E005C012D0272F11C0DC01CB01A9
:101E7000FC01E199FECF06C0FFBBEEBBE09A3196B4
:101E80000DB20D9241505040B8F70895262FE199B8
:101E9000FECF1CBA9FBB8EBB2DBB0FB6F894E29A47
:0C1EA000E19A0FBE01960895F894FFCF60
:0400000300001A00DF
:00000001FF
